{
  "contractName": "DecentralBank",
  "abi": [
    {
      "inputs": [
        {
          "internalType": "contract RWD",
          "name": "_rwd",
          "type": "address"
        },
        {
          "internalType": "contract Tether",
          "name": "_tether",
          "type": "address"
        }
      ],
      "payable": false,
      "stateMutability": "nonpayable",
      "type": "constructor"
    },
    {
      "constant": true,
      "inputs": [
        {
          "internalType": "address",
          "name": "",
          "type": "address"
        }
      ],
      "name": "hasStaked",
      "outputs": [
        {
          "internalType": "bool",
          "name": "",
          "type": "bool"
        }
      ],
      "payable": false,
      "stateMutability": "view",
      "type": "function"
    },
    {
      "constant": true,
      "inputs": [
        {
          "internalType": "address",
          "name": "",
          "type": "address"
        }
      ],
      "name": "isStaked",
      "outputs": [
        {
          "internalType": "bool",
          "name": "",
          "type": "bool"
        }
      ],
      "payable": false,
      "stateMutability": "view",
      "type": "function"
    },
    {
      "constant": true,
      "inputs": [],
      "name": "name",
      "outputs": [
        {
          "internalType": "string",
          "name": "",
          "type": "string"
        }
      ],
      "payable": false,
      "stateMutability": "view",
      "type": "function"
    },
    {
      "constant": true,
      "inputs": [],
      "name": "owner",
      "outputs": [
        {
          "internalType": "address",
          "name": "",
          "type": "address"
        }
      ],
      "payable": false,
      "stateMutability": "view",
      "type": "function"
    },
    {
      "constant": true,
      "inputs": [],
      "name": "rwd",
      "outputs": [
        {
          "internalType": "contract RWD",
          "name": "",
          "type": "address"
        }
      ],
      "payable": false,
      "stateMutability": "view",
      "type": "function"
    },
    {
      "constant": true,
      "inputs": [
        {
          "internalType": "uint256",
          "name": "",
          "type": "uint256"
        }
      ],
      "name": "stakers",
      "outputs": [
        {
          "internalType": "address",
          "name": "",
          "type": "address"
        }
      ],
      "payable": false,
      "stateMutability": "view",
      "type": "function"
    },
    {
      "constant": true,
      "inputs": [
        {
          "internalType": "address",
          "name": "",
          "type": "address"
        }
      ],
      "name": "stakingBalance",
      "outputs": [
        {
          "internalType": "uint256",
          "name": "",
          "type": "uint256"
        }
      ],
      "payable": false,
      "stateMutability": "view",
      "type": "function"
    },
    {
      "constant": true,
      "inputs": [],
      "name": "tether",
      "outputs": [
        {
          "internalType": "contract Tether",
          "name": "",
          "type": "address"
        }
      ],
      "payable": false,
      "stateMutability": "view",
      "type": "function"
    },
    {
      "constant": false,
      "inputs": [
        {
          "internalType": "uint256",
          "name": "_amount",
          "type": "uint256"
        }
      ],
      "name": "depositTokens",
      "outputs": [],
      "payable": false,
      "stateMutability": "nonpayable",
      "type": "function"
    }
  ],
  "bytecode": "0x60806040526040518060400160405280600d81526020017f446563656e7472616c42616e6b000000000000000000000000000000000000008152506000908051906020019061004f929190610123565b5034801561005c57600080fd5b50604051610a26380380610a268339818101604052604081101561007f57600080fd5b81019080805190602001909291908051906020019092919050505081600360006101000a81548173ffffffffffffffffffffffffffffffffffffffff021916908373ffffffffffffffffffffffffffffffffffffffff16021790555080600260006101000a81548173ffffffffffffffffffffffffffffffffffffffff021916908373ffffffffffffffffffffffffffffffffffffffff16021790555050506101c8565b828054600181600116156101000203166002900490600052602060002090601f016020900481019282601f1061016457805160ff1916838001178555610192565b82800160010185558215610192579182015b82811115610191578251825591602001919060010190610176565b5b50905061019f91906101a3565b5090565b6101c591905b808211156101c15760008160009055506001016101a9565b5090565b90565b61084f806101d76000396000f3fe608060405234801561001057600080fd5b50600436106100935760003560e01c80636177fd18116100665780636177fd18146102075780638da5cb5b14610263578063c93c8f34146102ad578063dd49756e14610309578063fd5e6dd11461033757610093565b806306fdde03146100985780631a8972d31461011b57806345bc78ab146101655780635efc071a146101bd575b600080fd5b6100a06103a5565b6040518080602001828103825283818151815260200191508051906020019080838360005b838110156100e05780820151818401526020810190506100c5565b50505050905090810190601f16801561010d5780820380516001836020036101000a031916815260200191505b509250505060405180910390f35b610123610443565b604051808273ffffffffffffffffffffffffffffffffffffffff1673ffffffffffffffffffffffffffffffffffffffff16815260200191505060405180910390f35b6101a76004803603602081101561017b57600080fd5b81019080803573ffffffffffffffffffffffffffffffffffffffff169060200190929190505050610469565b6040518082815260200191505060405180910390f35b6101c5610481565b604051808273ffffffffffffffffffffffffffffffffffffffff1673ffffffffffffffffffffffffffffffffffffffff16815260200191505060405180910390f35b6102496004803603602081101561021d57600080fd5b81019080803573ffffffffffffffffffffffffffffffffffffffff1690602001909291905050506104a7565b604051808215151515815260200191505060405180910390f35b61026b6104c7565b604051808273ffffffffffffffffffffffffffffffffffffffff1673ffffffffffffffffffffffffffffffffffffffff16815260200191505060405180910390f35b6102ef600480360360208110156102c357600080fd5b81019080803573ffffffffffffffffffffffffffffffffffffffff1690602001909291905050506104ed565b604051808215151515815260200191505060405180910390f35b6103356004803603602081101561031f57600080fd5b810190808035906020019092919050505061050d565b005b6103636004803603602081101561034d57600080fd5b81019080803590602001909291905050506107de565b604051808273ffffffffffffffffffffffffffffffffffffffff1673ffffffffffffffffffffffffffffffffffffffff16815260200191505060405180910390f35b60008054600181600116156101000203166002900480601f01602080910402602001604051908101604052809291908181526020018280546001816001161561010002031660029004801561043b5780601f106104105761010080835404028352916020019161043b565b820191906000526020600020905b81548152906001019060200180831161041e57829003601f168201915b505050505081565b600360009054906101000a900473ffffffffffffffffffffffffffffffffffffffff1681565b60056020528060005260406000206000915090505481565b600260009054906101000a900473ffffffffffffffffffffffffffffffffffffffff1681565b60076020528060005260406000206000915054906101000a900460ff1681565b600160009054906101000a900473ffffffffffffffffffffffffffffffffffffffff1681565b60066020528060005260406000206000915054906101000a900460ff1681565b600260009054906101000a900473ffffffffffffffffffffffffffffffffffffffff1673ffffffffffffffffffffffffffffffffffffffff166323b872dd3330846040518463ffffffff1660e01b8152600401808473ffffffffffffffffffffffffffffffffffffffff1673ffffffffffffffffffffffffffffffffffffffff1681526020018373ffffffffffffffffffffffffffffffffffffffff1673ffffffffffffffffffffffffffffffffffffffff1681526020018281526020019350505050602060405180830381600087803b1580156105ea57600080fd5b505af11580156105fe573d6000803e3d6000fd5b505050506040513d602081101561061457600080fd5b81019080805190602001909291905050505080600560003373ffffffffffffffffffffffffffffffffffffffff1673ffffffffffffffffffffffffffffffffffffffff16815260200190815260200160002060008282540192505081905550600660003373ffffffffffffffffffffffffffffffffffffffff1673ffffffffffffffffffffffffffffffffffffffff16815260200190815260200160002060009054906101000a900460ff1661072b5760043390806001815401808255809150509060018203906000526020600020016000909192909190916101000a81548173ffffffffffffffffffffffffffffffffffffffff021916908373ffffffffffffffffffffffffffffffffffffffff160217905550505b6001600760003373ffffffffffffffffffffffffffffffffffffffff1673ffffffffffffffffffffffffffffffffffffffff16815260200190815260200160002060006101000a81548160ff0219169083151502179055506001600660003373ffffffffffffffffffffffffffffffffffffffff1673ffffffffffffffffffffffffffffffffffffffff16815260200190815260200160002060006101000a81548160ff02191690831515021790555050565b600481815481106107eb57fe5b906000526020600020016000915054906101000a900473ffffffffffffffffffffffffffffffffffffffff168156fea265627a7a72315820e0541a3e092beb04c0f51ee9e960b2ddb9d709e2056e9c49c1d37337fdd7920964736f6c63430005110032",
  "source": "// SPDX-License-Identifier: MIT\r\npragma solidity ^0.5.0;\r\n\r\nimport \"./RWD.sol\";\r\nimport \"./Tether.sol\";\r\n\r\ncontract DecentralBank {\r\n    string public name = \"DecentralBank\";\r\n    address public owner;\r\n\r\n    Tether public tether;\r\n    RWD public rwd;\r\n\r\n    address[] public stakers;\r\n    mapping(address => uint256) public stakingBalance;\r\n    mapping(address => bool) public hasStaked;\r\n    mapping(address => bool) public isStaked;\r\n\r\n    constructor(RWD _rwd, Tether _tether) public {\r\n        rwd = _rwd;\r\n        tether = _tether;\r\n    }\r\n\r\n    function depositTokens(uint _amount) public {\r\n        tether.transferFrom(msg.sender, address(this), _amount);\r\n        stakingBalance[msg.sender] += _amount;\r\n\r\n        if (!hasStaked[msg.sender]) {\r\n            stakers.push(msg.sender);\r\n        }\r\n\r\n        isStaked[msg.sender] = true;\r\n        hasStaked[msg.sender] = true;\r\n    }\r\n}\r\n",
  "sourcePath": "Z:/code/defi-staking-app-starter/defi-staking-app-starter/src/contracts/DecentralBank.sol",
  "compiler": {
    "name": "solc",
    "version": "0.5.17+commit.d19bba13.Emscripten.clang"
  },
  "schemaVersion": "3.2.3",
  "updatedAt": "2024-05-03T15:03:30.040Z",
  "networkType": "ethereum",
  "devdoc": {
    "methods": {}
  },
  "userdoc": {
    "methods": {}
  }
}